:1000000036C050C04FC04EC09AC54CC04BC04AC04D
:1000100021C646C647C046C045C044C096C042C07F
:1000200041C040C03FC007060504030201000809A3
:100030000A0B0C0D0E0F3F0006015B024F03660416
:100040006D057D0607077F086F09000A400B002039
:10005000085F77417C4239435E44794571463147B8
:1000600076483F4F735078546E557F566E59112421
:100070001FBECFE5D4E0DEBFCDBF10E0A0E6B0E00C
:10008000EEE4FDE002C005900D92AE37B107D9F75E
:1000900010E0AEE7B0E001C01D92A13CB107E1F76E
:1000A0000DD653C6ADCF369A40917E00442361F001
:1000B00024B135B180918C0090918D00820F931FF7
:1000C00090938D0080938C00842F8F5F80937E00AF
:1000D0008930D1F580918C0090918D0023E0969528
:1000E00087952A95E1F79093870080938600109278
:1000F0008D0010928C0010927E0027B1263091F472
:1001000020918800309189002817390749F0909391
:1001100089008093880062E370E087EC91E0C6D3A9
:1001200087E011C020918A0030918B002817390791
:1001300049F090938B0080938A0062E370E082ED37
:1001400091E0B4D386E087B908951F920F920FB65D
:100150000F9211242F933F934F935F936F937F934D
:100160008F939F93AF93BF93EF93FF9364E670E0F9
:1001700083E590E09BD3FF91EF91BF91AF919F9169
:100180008F917F916F915F914F913F912F910F9040
:100190000FBE0F901F90189586B1876086B987B102
:1001A000866087B987B1806687B9379A369A339A5D
:1001B000089565E08091820090918300CDD161E047
:1001C0008091840090918500C7D16AEF70E089ED3D
:1001D00090E06CC36CED75E089ED90E067D341E091
:1001E00060E080E690E02DD19C9B02C0AC9801C0FD
:1001F000AC9A1092C0001092BF0008956CED75E0AB
:1002000089ED90E053D341E060E085E690E019D1BC
:100210009D9B02C0AD9801C0AD9A1092C000109293
:10022000BF0008956CED75E089ED90E03FD38091BB
:10023000910041E060E084FD1FC08AE690E001D1BA
:1002400080919100806180648093910080918A0008
:1002500090918B0090938100809380002091880082
:10026000309189003093850020938400909383001F
:1002700080938200AB9A1DC08FE690E0E2D080911F
:1002800091008F7E80939100AB988091880090912F
:100290008900909385008093840080918A009091DA
:1002A0008B009093830080938200909381008093D1
:1002B00080001092C0001092BF00089580919000BD
:1002C00080FF35C08E7F809390008091BF00909119
:1002D000C00083309105C1F034F48130910551F0B4
:1002E000029729F50CC085309105B1F094F00B9779
:1002F000F1F418C064E670E08CE991E017C064E6A0
:1003000070E08AEE90E012C064E670E082E191E075
:100310000DC064E670E008C041E060E084E790E072
:1003200090D005C06AEF70E08EEF90E0BFD262E33C
:1003300070E08EE591E0BAC26CED75E089ED90E079
:10034000B5D241E060E089E790E07BD080919100F8
:1003500084FF17C08F7E8093910080918A009091D6
:100360008B009093830080938200209188003091CD
:1003700089003093850020938400909381008093BE
:1003800080009B9B02C0AB980895AB9A089568EEDD
:1003900073E089ED90E08AD265E0809188009091C9
:1003A0008900DAC068EE73E089ED90E07FD261E009
:1003B00080918A0090918B00CFC082B38FEF82BB77
:1003C00080E090E040E021E030E0FC01EA5DFF4F9A
:1003D000E491B90102C0660F771FEA95E2F7462B58
:1003E00001968830910589F788B34095482348BB2A
:1003F00048B350917F00852F90E0FC01EA5DFF4FEC
:10040000E49121E030E0B90102C0660F771FEA9560
:10041000E2F7462B48BB22B3FC01ED56FF4F80812B
:100420008095822382BB5F5F583018F450937F0021
:1004300002C010927F0065E070E08DED91E036C261
:100440000895CF92DF92EF92FF920F931F93CF9375
:10045000DF93CDB7DEB70DB71EB7FC0101900020CA
:10046000E9F73197E81BF90B2DB73EB72E1B3F0B71
:100470000FB6F8943EBF0FBE2DBFEDB6FEB6EFEF40
:10048000EE1AFE0AFC0101900020E9F731977E2F59
:10049000781B20E030E009C0D701A50FB11D1197EE
:1004A000FC01EC0DFD1D50815C93572F521B69011F
:1004B000DD24FC0101900020E9F73197E81BF90BDE
:1004C0002F5F3F4FCE16DF0638F380E090E050E01C
:1004D0004D565F4F1DC0FD01E95CFF4FE491F0E018
:1004E000E217F30759F4FD01EA5CFF4F2491DA01AA
:1004F000A80FB91F11972C9301960AC0D394ED2D24
:10050000F0E0DF01AA0FBB1F2E173F0724F7EBCF48
:10051000871748F4F70121917F01332727FD309594
:10052000EBE0DE2EECCF862F8150883038F4E62FBA
:10053000F0E0EE56FF4F8081806880830FB6F8941C
:100540001EBF0FBE0DBFDF91CF911F910F91FF9086
:10055000EF90DF90CF900895EF92FF920F931F934B
:10056000CF93DF939C018C0101701127C62FD0E03F
:1005700060E777E1D6D348E5E42E42E0F42EB701F8
:10058000D0D3660F771F6A5C7F4FFB016491CD5615
:10059000DF4F6A83C901B701C4D36CE3E62EF12CA7
:1005A000B701BFD3660F771F6A5C7F4FFB01649171
:1005B000F1E00F271695102F002717950795602B50
:1005C0006983C901B701ADD30AE010E0B801A9D32E
:1005D000660F771F6A5C7F4FFB0164916883C901D6
:1005E000B8019FD3880F991F8A5C9F4FFC018491AB
:1005F00021978883DF91CF911F910F91FF90EF900A
:1006000008958FEF82BB81BB80E090E021E030E075
:1006100048B3FC01EA5DFF4FE491B90102C0660FE7
:10062000771FEA95E2F7462B48BB47B3462B47BBFB
:1006300001968830910561F7109293001092940012
:1006400010929500109296001092970010929800C8
:100650001092990010929A000895EF92FF920F93D2
:100660001F93CF93DF939C01F62EC3E9D0E040E0C7
:100670000AE010E0EAE4F0E0E490C901B80151D3E7
:10068000442329F02115310511F4F41640F0FC0142
:10069000EE0FFF1FEA5CFF4FE491E88301C0E882A0
:1006A000C901B8013ED39B014F5F2196483029F71D
:1006B0008F2D8150883038F4EF2DF0E0EE56FF4F4B
:1006C000808180688083DF91CF911F910F91FF908F
:1006D000EF900895EF92FF920F931F93CF93DF93C4
:1006E000EC01F62E842F8150883028F08F2D815018
:1006F000883068F133C0240F342F0AE010E0EAE4B8
:10070000F0E0E49021C0CE01B8010BD3341721F002
:10071000209711F4F31660F0FC01EE0FFF1FEA5C66
:10072000FF4FE491A32FB0E0AE56BF4FEC9305C04E
:10073000A32FB0E0AE56BF4FEC92CE01B801F1D27C
:10074000EB013F5F393091F23213DDCFCFCFEF2D88
:10075000F0E0EE56FF4F808180688083DF91CF917B
:100760001F910F91FF90EF90089588E384BB87E07D
:1007700085BB089590919000929596959770809181
:1007800091008170880F880F880F892B08958091C0
:10079000900081FF2EC082FD02C083FF2AC090918D
:1007A00090009D7F9093900093FF1DC0392F32954C
:1007B0003695377020919100822F8170880F880FB5
:1007C000880F832B885F382F3295330F307E9F71CF
:1007D000932B9093900083FB882780F9922F9E7F24
:1007E000982B9093910080919000877F81608093F7
:1007F000900080919000846080939000982F929553
:1008000096959770809191008170880F880F880F5E
:10081000892B8093BF001092C000089583B390E0AD
:10082000809590958770992720919000892B79F178
:100830002B7F2093900080918E0090918F000196E5
:1008400090938F0080938E008630910550F121FDAA
:1008500013C0322F32603093900023B3209527705D
:100860002295220F207E3F71322B309390002091F1
:1008700091002E7F209391008536910590F0809114
:10088000900083FD0EC088608093900009C0109294
:100890008F0010928E0022FD03C0246020939000F0
:1008A00076DF69E170E08EE094E000C00F931F9363
:1008B000CF93DF93FB0120E030E0122FB901A901B3
:1008C000440F551F440F551FDA01A356BF4FCD915A
:1008D000DC911197C817D907F9F0CD91DC911197E8
:1008E000CD2B31F412960D90BC91A02DAB2BA1F025
:1008F000DA01A356BF4F12964D915C911397309732
:1009000011F4E1E0F0E0E417F50730F02F5F3F4F1E
:100910002930310591F618E09B01220F331F220F79
:10092000331FD901A356BF4F4D915C9111974817C2
:10093000590711F0012F39C012968D919C91139790
:100940008E0F9F1F13969C938E93129711C08081D8
:100950009181A281B381488159816A817B814083E1
:1009600051836283738388839983AA83BB831F5FC8
:10097000C12FD0E0FE01EE0FFF1FEE0FFF1FEF555E
:10098000FF4F80819181892B09F449C022813381F5
:10099000CC0FDD1FCC0FDD1FC356DF4F8A819B813B
:1009A00082179307A0F63BC00F5F44E0049FD0017D
:1009B0001124A356BF4F4D915C911197452B11F116
:1009C00012964D915C911397452BE1F0083060F33E
:1009D00019C0C02FD0E0DE01AA0FBB1FAA0FBB1F9A
:1009E000A356BF4FCC0FDD1FCC0FDD1FC756DF4F07
:1009F000488159816A817B814D935D936D937C938E
:100A000013970150101728F3D901A356BF4F119621
:100A10009C938E931396FC93EE931297102F1111C3
:100A20000CC080919F009091A00090939C008093B7
:100A30009B009093BE008093BD00DF91CF911F91EA
:100A40000F910895CF93DF938091920080FF69C04A
:100A500080919D0090919E00892B09F462C0809145
:100A60009D0090919E00A0919F00B091A000FC017C
:100A700020E030E026C02F5F3F4FCC0FDD1FCC0FB2
:100A8000DD1FC356DF4FD901AA0FBB1FAA0FBB1F23
:100A9000A356BF4F8D919D910D90BC91A02D888341
:100AA0009983AA83BB838A819B81892B51F04A81D8
:100AB0005B818091BD009091BE00481B590B5B8308
:100AC0004A83E901D901AA0FBB1FAA0FBB1FA35676
:100AD000BF4F8D919C911197892B31F412968D9176
:100AE0009C911397892B19F02830310521F68091BC
:100AF0009D0090919E00892B61F080919F009091C4
:100B0000A00090939C0080939B009093BE008093E4
:100B1000BD00309709F00995809192008E7F8093F7
:100B20009200DF91CF91089594E0899FF001112404
:100B3000E356FF4F118210821382128208951F9292
:100B40000F920FB60F9211248F939F9383ED84BD64
:100B50008091920080FD0BC080919B0090919C0041
:100B6000009729F0019790939C0080939B008091BF
:100B70009B0090919C00892B29F4809192008160C8
:100B8000809392009F918F910F900FBE0F901F90B6
:100B9000189585B5846085BD81E088BF89B780647C
:100BA00089BF83ED84BD08952091910025FF4DC03C
:100BB00024FF31C08091800090918100009731F036
:100BC0000197909381008093800025C026FD12C07C
:100BD000809188009091890090938100809380009B
:100BE000019690938300809382002064209391006B
:100BF000AB9A11C080918A0090918B0090938100F4
:100C000080938000019690938500809384002F7BD1
:100C100020939100AB98809191008F7D80939100FB
:100C200086FD0AC080918400909185000197909381
:100C300085008093840009C0809182009091830098
:100C40000197909383008093820064E670E084EDC6
:100C500095E02CCE1F920F920FB60F9211248F9316
:100C60009F938CE791EE9DBD8CBD8091910084FF98
:100C700003C08062809391009F918F910F900FBE6F
:100C80000F901F90189585E489BF85E083BF99ED8B
:100C900092BF85BD8EBD8CE791EE9DBD8CBD089544
:100CA0001F920F920FB60F9211248F9389ED82BF7E
:100CB0008F910F900FBE0F901F901895E4DF6CDAA4
:100CC00068DF9FDC52DD80919000909191008570EB
:100CD00084608E7F809390008091920081608093E9
:100CE000920092769F7D9093910061E070E08DED8F
:100CF00091E0DCDD69E170E08EE094E0D7DD6AEF41
:100D000070E089ED90E0D2DD62E370E08EE591E085
:100D1000CDDD64E670E084ED95E0C8DD789492DE88
:100D2000FECFAA1BBB1B51E107C0AA1FBB1FA61702
:100D3000B70710F0A61BB70B881F991F5A95A9F784
:0E0D400080959095BC01CD010895F894FFCFE9
:100D4E005F474F50005450554200435441500043AA
:0E0D5E00544F50004156544F0020504F440057
:00000001FF
