:1000000048C062C061C060C06ACB5EC05DC05CC0F9
:10001000CCCBB6CC59C058C057C056C056C054C03F
:1000200053C052C051C088C163C168C16DC172C1A3
:1000300077C182C181C180C17FC17EC177C17CC1CE
:100040007BC13F0006015B024F0366046D057D0620
:1000500007077F086F09000A400B0020085F7741FF
:100060007C4239435E4479457146314776483F4F7B
:10007000735078546E557F566E5907060504030277
:10008000010008090A0B0C0D0E0F010204081020D4
:10009000408011241FBECFE5D4E0DEBFCDBF10E00D
:1000A000A0E6B0E0E8E1FAE102C005900D92AE37BB
:1000B000B107D9F710E0AEE7B0E001C01D92A13C56
:1000C000B107E1F739D8A6CC9BCF1F920F920090D1
:1000D0005F000F9211242F933F934F935F936F9381
:1000E0007F938F939F93AF93BF93EF93FF93CF93A0
:1000F000DF93CDB7DEB764E670E084E990E082D8A4
:10010000DF91CF91FF91EF91BF91AF919F918F912F
:100110007F916F915F914F913F912F910F9000923E
:100120005F000F901F901895CF93DF93CDB7DEB788
:1001300086E290E026E230E0F90120812064FC01B3
:10014000208380917E00882379F084E290E0FC0196
:100150002081318180918C0090918D00820F931FBE
:1001600090938D0080938C0080917E008F5F8093B0
:100170007E0080917E00893009F055C080918C000E
:1001800090918D00969587959695879596958795EC
:10019000909387008093860010928D0010928C00BF
:1001A00010927E0087E290E0FC0180818630F1F4BD
:1001B000209188003091890080918600909187007D
:1001C0002817390769F080918600909187009093F5
:1001D00089008093880062E370E087EE92E012D895
:1001E00087E290E027E0FC0120831DC020918A0077
:1001F00030918B00809186009091870028173907F5
:1002000069F0809186009091870090938B00809395
:100210008A0062E370E089EF92E0F4D787E290E031
:1002200026E0FC012083DF91CF910895CF93DF93E7
:10023000CDB7DEB786E290E026E230E0F90120811A
:100240002760FC01208387E290E027E230E0F9019B
:1002500020812660FC01208387E290E027E230E0E5
:10026000F90120812066FC01208386E290E026E2ED
:1002700030E0F90120812068FC01208386E290E0D3
:1002800026E230E0F90120812064FC01208386E22F
:1002900090E026E230E0F90120812860FC01208313
:1002A000DF91CF910895CF93DF93CDB7DEB78091E3
:1002B00090008170882309F440C0809190008E7F67
:1002C000809390008091BF009091C000AA2797FD75
:1002D000A095BA2F40E050E02DE030E0841B950B54
:1002E0002817390748F18D5E9F4F8F939F9308958C
:1002F00064E670E08AE192E085D71FC064E670E0B2
:1003000085EB92E07FD719C064E670E085EA91E062
:1003100079D713C064E670E083E892E073D70DC02C
:1003200041E060E080E690E089D107C06AEF70E0CC
:1003300083E892E067D701C0000062E370E083E5E4
:1003400091E060D7DF91CF910895CF93DF93CDB740
:10035000DEB76CED75E08BE692E054D780919100AA
:1003600084FB992790F981E08927882389F141E06E
:1003700060E085E690E062D1809191008061809399
:1003800091008091910080648093910080918A0017
:1003900090918B00909385008093840080918800D9
:1003A00090918900909381008093800080918A00D1
:1003B00090918B00909383008093820085E390E07E
:1003C00025E330E0F90120812860FC0120832BC067
:1003D00041E060E08AE690E031D1809191008F7E2B
:1003E0008093910085E390E025E330E0F9012081DE
:1003F000277FFC0120838091880090918900909351
:1004000081008093800080918A0090918B0090936E
:1004100083008093820080918A0090918B0090935A
:100420008500809384001092C0001092BF00DF917D
:10043000CF910895CF93DF93CDB7DEB76CED75E024
:100440008BE692E0DFD641E060E08FE690E0F6D008
:1004500080919100829581708823E9F080919100CC
:100460008F7E8093910080918A0090918B00909371
:1004700083008093820080918800909189009093FE
:1004800081008093800080918A0090918B009093EE
:1004900085008093840083E390E0FC018081882FB5
:1004A00090E088709927009751F085E390E025E36C
:1004B00030E0F9012081277FFC01208309C085E31A
:1004C00090E025E330E0F90120812860FC012083E1
:1004D000DF91CF910895CF93DF93CDB7DEB78091B1
:1004E00082009091830065E096D180918000909188
:1004F000810061E090D16AEF70E08BE692E082D6F5
:10050000DF91CF910895CF93DF93CDB7DEB76CED38
:1005100075E08BE692E076D641E060E084E790E01B
:100520008DD083E390E0FC018081882F90E0807281
:100530009927009751F085E390E025E330E0F90139
:1005400020812F7DFC01208309C085E390E025E315
:1005500030E0F90120812062FC0120831092C0006C
:100560001092BF00DF91CF910895CF93DF93CDB765
:10057000DEB76CED75E08BE692E044D641E060E0DA
:1005800089E790E05BD083E390E0FC018081882FD5
:1005900090E080719927009751F085E390E025E382
:1005A00030E0F90120812F7EFC01208309C085E322
:1005B00090E025E330E0F90120812061FC012083F7
:1005C0001092C0001092BF00DF91CF910895CF9399
:1005D000DF93CDB7DEB768EE73E08BE692E012D61C
:1005E000809188009091890065E015D1DF91CF91CD
:1005F0000895CF93DF93CDB7DEB768EE73E08BE657
:1006000092E000D680918A0090918B0061E003D146
:10061000DF91CF910895CF93DF9300D01F92CDB794
:10062000DEB78B838B81882F90E09A8389838981C1
:100630000F900F900F90DF91CF910895CF92DF929E
:10064000EF92FF920F931F93CF93DF93CDB7DEB757
:1006500061970FB6F894DEBF0FBECDBF9F878E8720
:10066000688B498B0DB71EB78DB79EB77C018E8501
:100670009F85C7D99C01215031093C832B832DB71D
:100680003EB7281B390B0FB6F8943EBF0FBE2DBFE7
:100690008DB79EB701969E838D838E859F85B1D938
:1006A0008F8319828E859F85ACD98A8319C08A81F0
:1006B000882F90E001972981222F30E04E855F85B9
:1006C000240F351FF90140812D813E81820F931F38
:1006D000FC01408389818F5F89838A8181508A836D
:1006E0008981C82ED12C8E859F858BD9C816D906B5
:1006F000F0F21A825AC08BE0898324C08981882F46
:1007000090E0880F991F01968E5B9F4F998788878D
:1007100088859985FC01D490DA868A85282F30E077
:100720008A81882F90E04D815E81840F951FFC01A6
:100730008081992787FD909528173907B1F0898125
:100740008F5F89838981282F30E08A81882F90E00C
:100750004D815E81840F951FFC018081992787FD63
:1007600090958217930754F601C000008A81282FC4
:1007700030E08989882F90E0820F931F01972981AB
:10078000222F30E0220F331F2E5B3F4F3C872B87F9
:100790002B853C85F901D490DD862D858D569F4FA4
:1007A000FC0120838A818F5F8A839A818F819817C9
:1007B00008F4A1CF88898930A8F48889882391F02A
:1007C0008889882F90E001972889222F30E02150D6
:1007D00031092D563F4FF901208120688D569F4FDA
:1007E000FC0120830FB6F894FEBE0FBEEDBE0FB61F
:1007F000F8941EBF0FBE0DBF61960FB6F894DEBF12
:100800000FBECDBFDF91CF911F910F91FF90EF9061
:10081000DF90CF900895FF920F931F93CF93DF93B4
:10082000CDB7DEB760970FB6F894DEBF0FBECDBF71
:100830009F878E87688B8E859F858170992700970B
:1008400019F481E0898301C019828889882F90E09A
:100850008C010E5F1F4F8E859F8520E737E1B90120
:10086000BCD89695879596958795969587959C0182
:10087000AFE4BBE1A6D89695879596958795969512
:100880008795880F991F8E5B9F4F9B838A838A81F0
:100890009B81FC01F490FC822C81C8018D569F4FF6
:1008A000FC0120838889882F90E08C010F5F1F4F07
:1008B0004E855F85CA0196958795969587959695FD
:1008C00087959C01AFE4BBE17CD89695879596957A
:1008D00087959695879568E572E0869F9001879F3A
:1008E000300D969F300D1124CA01821B930B9C0181
:1008F000A9E8B8E866D896958795929582958F7005
:1009000089279F708927880F991F8E5B9F4F9E8331
:100910008D838D819E81FC01F490FF828F81282F31
:100920008981882F90E09695982F882797958795AD
:10093000822B282FC8018D569F4FFC012083888968
:10094000082F10E04E855F859A01A9E8B8E839D8EC
:1009500096958795929582958F7089279F708927A4
:100960006CE3689F9001699F300D1124CA01821BBE
:10097000930B9C01ADECBCEC24D89695879596958D
:10098000879596958795880F991F8E5B9F4F9987BE
:10099000888788859985FC01F490FA862A85C801A4
:1009A0008D569F4FFC0120838889882F90E08C0111
:1009B000015011094E855F859A01ADECBCEC01D860
:1009C000969587959695879596958795880F991F03
:1009D0009C01220F331F220F331F820F931F9A0196
:1009E000281B390BC901880F991F8E5B9F4F9C876D
:1009F0008B878B859C85FC01F490FD862D85C80135
:100A00008D569F4FFC01208360960FB6F894DEBF91
:100A10000FBECDBFDF91CF911F910F91FF90089531
:100A20001F93CF93DF93CDB7DEB727970FB6F89418
:100A3000DEBF0FBECDBF82E390E02FEFFC0120832D
:100A400081E390E02FEFFC012083198244C088E30A
:100A500090E028E330E0F9012081622F2981222FE4
:100A600030E026583F4F3B832A832A813B81F9019E
:100A700014911C832C81422F50E021E030E002C011
:100A8000220F331F4A95E2F7262BFC01208387E3D0
:100A900090E027E330E0F9012081622F2981222FA5
:100AA00030E026583F4F3E832D832D813E81F90152
:100AB00014911F832F81422F50E021E030E0042E5B
:100AC00002C0220F331F0A94E2F7262BFC01208379
:100AD00089818F5F89838981883008F4B8CF198232
:100AE0000AC08981882F90E08D569F4FFC011082AB
:100AF00089818F5F89838981883098F327960FB623
:100B0000F894DEBF0FBECDBFDF91CF911F91089546
:100B10001F93CF93DF93CDB7DEB72B970FB6F89423
:100B2000DEBF0FBECDBF9A8789876B8719825EC0F3
:100B300049855A859A01ADECBCEC43D796958795CB
:100B40009695879596958795880F991F9C01220FFA
:100B5000331F220F331F820F931F9A01281B390B5B
:100B6000C9018A838981882341F089859A85009704
:100B700021F499818B858917B8F08981882F90E0BD
:100B80002A81222F30E0220F331F2E5B3F4F3F83FD
:100B90002E832E813F81F9011491188728858D5667
:100BA0009F4FFC01208311C08981882F90E026E5AA
:100BB00030E03C832B832B813C81F90114911D8310
:100BC0002D818D569F4FFC01208389859A859C013C
:100BD000ADECBCECF6D6969587959695879596954F
:100BE00087959A87898789818F5F898389818830F2
:100BF00008F49ECF8B858930A8F48B85882391F0EB
:100C00008B85882F90E001972B85222F30E0215093
:100C100031092D563F4FF901208120688D569F4F95
:100C2000FC0120832B960FB6F894DEBF0FBECDBF1C
:100C3000DF91CF911F9108951F93CF93DF93CDB78D
:100C4000DEB72D970FB6F894DEBF0FBECDBF9A87E3
:100C500089876B874C872D878C85893008F073C016
:100C60008C85882309F46FC0198266C049855A852E
:100C70009A01ADECBCECA5D696958795969587958F
:100C800096958795880F991F9C01220F331F220F7D
:100C9000331F820F931F9A01281B390BC9018A83C6
:100CA0008981882341F089859A85009721F49C8564
:100CB0008B858917C0F08C85882F90E001972A8159
:100CC000222F30E0220F331F2E5B3F4F3F832E83B6
:100CD0002E813F81F9011491188728858D569F4FE9
:100CE000FC01208312C08C85882F90E0019726E5B7
:100CF00030E03C832B832B813C81F90114911D83CF
:100D00002D818D569F4FFC01208389859A859C01FA
:100D1000ADECBCEC56D696958795969587959695AD
:100D200087959A8789878C858F5F8C878C8589309A
:100D300048F489818F5F898399818D85981708F49C
:100D400095CF01C000008B858930A8F48B8588235E
:100D500091F08B85882F90E001972B85222F30E032
:100D6000215031092D563F4FF901208120688D56C1
:100D70009F4FFC0120832D960FB6F894DEBF0FBE67
:100D8000CDBFDF91CF911F9108951F93CF93DF9334
:100D9000CDB7DEB72E970FB6F894DEBF0FBECDBF2E
:100DA00082E390E0FC01808182E390E02FEFFC0180
:100DB00020831A8219821EC08981882F90E086586C
:100DC0009F4F9C838B838B819C81FC0114911D839D
:100DD0008D81282F30E081E090E0022E02C0880F44
:100DE000991F0A94E2F7982F8A81892B8A83898137
:100DF0008F5F898389818830F8F288E390E028E367
:100E000030E0F9012081322F2A8120952323FC0133
:100E100020831A82198236C08981882F90E08D56EE
:100E20009F4FFC01208180917F00882F90E08657A2
:100E30009F4F9F838E838E819F81FC011491188721
:100E4000888582238823D9F08981882F90E086586D
:100E50009F4F9A87898789859A85FC0114911B8702
:100E60008B85282F30E081E090E0022E02C0880FB1
:100E7000991F0A94E2F7982F8A81892B8A838981A6
:100E80008F5F89838981883038F288E390E028E396
:100E900030E0F90130812A81232BFC01208382E399
:100EA00090E022E330E0F9012081422F20917F0081
:100EB000222F30E026573F4F3D872C872C853D85DC
:100EC000F90114911E872E8520952423FC0120838F
:100ED00080917F008F5F80937F0080917F0087707B
:100EE00080937F0065E070E085EC96E08BD12E96D4
:100EF0000FB6F894DEBF0FBECDBFDF91CF911F912B
:100F00000895CF93DF93CDB7DEB784E390E028E375
:100F1000FC01208385E390E027E0FC012083DF9142
:100F2000CF910895CF93DF93CDB7DEB78091900036
:100F3000829586958770909191009170990F990F85
:100F4000990F892BDF91CF910895CF93DF93CDB780
:100F5000DEB78091900086958170882339F080916A
:100F6000900082FB882780F9882371F4809190009B
:100F700086958170882309F441C08091900083FB9D
:100F8000882780F98823D1F1809190008D7F80930C
:100F900090008091900083FB882780F9882321F1BD
:100FA00080919000829586958770909191009170C4
:100FB000990F990F990F892B885F8F70982F9770D1
:100FC0009295990F907E209190002F71922B909383
:100FD000900086958695869581708170909191009C
:100FE0009E7F892B8093910080919000877F8093D2
:100FF000900080919000816080939000809190009B
:10100000846080939000809190008295869587708F
:10101000909191009170990F990F990F892B882FBA
:1010200090E09093C0008093BF00DF91CF9108952E
:10103000CF93DF93CDB7DEB783E390E0FC018081EF
:10104000882F90E08095909587709927009709F4F4
:1010500058C0809190008B7F8093900080918E008B
:1010600090918F00019690938F0080938E008091D5
:101070008E0090918F008630910508F455C08091C4
:10108000900081FB992790F981E08927882311F14D
:101090008091900082608093900083E390E0FC0157
:1010A000808180958F708770982F97709295990F97
:1010B000907E209190002F71922B909390008695B6
:1010C0008695869581708170909191009E7F892B85
:1010D0008093910080918E0090918F0085369105CC
:1010E00018F18091900083FB992790F981E089277E
:1010F0008823D1F08091900088608093900025DF54
:1011000013C010928F0010928E008091900082FB8D
:10111000992790F981E08927882329F08091900010
:1011200084608093900011DF69E170E088E198E0CD
:1011300069D0DF91CF910895CF93DF93CDB7DEB71C
:10114000F8D374D80FD36CDCDCDE809190008F7103
:1011500080939000809191008E7F80939100809188
:101160009000877F80939000809190008F7E809385
:101170009000809190008D7F8093900080919000EE
:10118000846080939000809190008E7F8093900087
:10119000809191008F7E8093910080919100877F54
:1011A00080939100809191008B7F8093910080913A
:1011B00091008F778093910080919200816080935D
:1011C0009200809191008F7D809391006AE070E0A1
:1011D00085EC96E017D069E170E088E198E012D0E4
:1011E0006AEF70E08BE692E00DD062E370E083E599
:1011F00091E008D064E670E085E09CE003D078944C
:101200008BD1FECFCF93DF93CDB7DEB72A970FB642
:10121000F894DEBF0FBECDBF98878F837A8769872A
:1012200019821A8203C089818F5F89838981882FFF
:1012300090E0880F991F880F991F83569F4FFC01DC
:10124000208131818F81988528173907E9F18981BB
:10125000882F90E0880F991F880F991F83569F4F02
:10126000FC0180819181009771F48981882F90E041
:10127000880F991F880F991F81569F4FFC0180810D
:101280009181009709F18981882F90E0880F991F3B
:10129000880F991F81569F4FFC01208131818985DC
:1012A0009A85009741F489859A8501969A8789875E
:1012B00089859A8502C089859A858217930720F0CF
:1012C0008981883008F4AFCF89818A838A81882F09
:1012D00090E0880F991F880F991F83569F4FFC013C
:1012E000208131818F8198852817390709F097C0AF
:1012F0008A81882F90E02A81222F30E0220F331F2D
:10130000220F331F21563F4FF9014081518129851A
:101310003A85240F351F880F991F880F991F815612
:101320009F4FFC013183208348C08981882F90E042
:101330000196880F991F880F991F83569F4FFC01B4
:1013400080819181A281B3818B839C83AD83BE8395
:101350008981882F90E09C012F5F3F4F8981882FE2
:1013600090E0220F331F220F331F23563F4F880F69
:10137000991F880F991F83569F4FFC01808191818F
:10138000A281B381F90180839183A283B383898190
:10139000882F90E0880F991F880F991F9C01235672
:1013A0003F4F8B819C81AD81BE81F9018083918308
:1013B000A283B38389818F5F89838981882F90E09D
:1013C0000196880F991F880F991F83569F4FFC0124
:1013D00080819181009709F483C08981882F90E0F2
:1013E0000196880F991F880F991F81569F4FFC0106
:1013F000208131818981882F90E0880F991F880F83
:10140000991F81569F4FFC0180819181821793071C
:1014100008F08BCF65C089818F5F898301C0000090
:101420008981882F90E0880F991F880F991F835614
:101430009F4FFC0180819181009791F18981882FD4
:1014400090E0880F991F880F991F81569F4FFC01CC
:1014500080819181009721F189818830E0F220C05C
:101460008981282F30E08981882F90E00197220F11
:10147000331F220F331F23563F4F880F991F880FAA
:10148000991F83569F4FFC0180819181A281B38176
:10149000F90180839183A283B383898181508983F9
:1014A00099818A818917E0F28A81882F90E0880FDC
:1014B000991F880F991F83569F4F2F813885FC01F4
:1014C000318320838A81882F90E0880F991F880FAD
:1014D000991F81569F4F29853A85FC0131832083CE
:1014E0008981882381F480919F009091A00090933E
:1014F0009C0080939B0080919B0090919C00909316
:10150000BE008093BD002A960FB6F894DEBF0FBED2
:10151000CDBFDF91CF910895CF93DF9300D000D05E
:101520001F92CDB7DEB71982809192008170882317
:1015300009F4ABC080919D0090919E00009709F442
:10154000A4C080919D0090919E00A0919F00B091B9
:10155000A0008A839B83AC83BD8354C089818F5F45
:1015600089838981882F90E09C01215031098981EC
:10157000882F90E0220F331F220F331F23563F4F37
:10158000880F991F880F991F83569F4FFC018081F8
:101590009181A281B381F90180839183A283B38376
:1015A0008981882F90E00197880F991F880F991FD4
:1015B00081569F4FFC0180819181009719F18981AB
:1015C000882F90E001972981222F30E021503109A6
:1015D000220F331F220F331F21563F4FF901408145
:1015E00051812091BD003091BE00BA01621B730B86
:1015F0009B01880F991F880F991F81569F4FFC01EF
:10160000318320838981882F90E0880F991F880F6C
:10161000991F83569F4FFC0180819181009771F43F
:101620008981882F90E0880F991F880F991F815614
:101630009F4FFC0180819181009721F08981883042
:1016400008F48CCF80919D0090919E00009781F0CE
:1016500080919F009091A00090939C0080939B00AC
:1016600080919B0090919C009093BE008093BD0060
:101670008A819B81009721F08A819B81FC010995D9
:10168000809192008E7F809392000F900F900F9028
:101690000F900F90DF91CF910895CF93DF931F921A
:1016A000CDB7DEB789838981882F90E0880F991F95
:1016B000880F991F83569F4FFC01118210828981E8
:1016C000882F90E0880F991F880F991F81569F4F90
:1016D000FC01118210820F90DF91CF9108951F922B
:1016E0000F9200905F000F9211242F938F939F937E
:1016F000EF93FF93CF93DF93CDB7DEB784E490E011
:1017000023EDFC01208380919200982F917081E05D
:101710008927882379F080919B0090919C00009705
:1017200049F080919B0090919C00019790939C00C0
:1017300080939B0080919B0090919C00009729F4DE
:1017400080919200816080939200DF91CF91FF9110
:10175000EF919F918F912F910F9000925F000F90CA
:101760001F901895CF93DF93CDB7DEB785E490E057
:1017700025E430E0F90120812460FC01208388E524
:1017800090E021E0FC01208389E590E029E530E04C
:10179000F90120812064FC01208384E490E023EDA2
:1017A000FC012083DF91CF9108951F920F9200904A
:1017B0005F000F9211242F933F938F939F93EF938A
:1017C000FF93CF93DF93CDB7DEB78CE490E02CE7A7
:1017D00031EEFC01318320838091910082958170EC
:1017E000882329F080919100806280939100DF919D
:1017F000CF91FF91EF919F918F913F912F910F90FA
:1018000000925F000F901F901895CF93DF93CDB794
:10181000DEB78091910085FB882780F9882309F441
:1018200080C08091910082958170882309F458C00E
:101830008091840090918500009751F08091840000
:10184000909185000197909385008093840048C013
:101850008091910086FB992790F981E08927882360
:1018600001F1809188009091890090938500809388
:10187000840080918400909185000196909383006C
:10188000809382008091910080648093910085E331
:1018900090E025E330E0F90120812860FC012083FD
:1018A0001FC080918A0090918B0090938500809357
:1018B000840080918400909185000196909381002E
:1018C00080938000809191008F7B8093910085E3CD
:1018D00090E025E330E0F9012081277FFC0120839F
:1018E000809191008F7D809391008091910086FB83
:1018F000992790F981E08927882351F08091800011
:10190000909181000197909381008093800009C09D
:10191000809182009091830001979093830080933F
:10192000820064E670E085E09CE06CDCDF91CF91A2
:101930000895CF93DF93CDB7DEB789E590E025E436
:10194000FC01208383E590E025E0FC01208382E513
:1019500090E029EDFC01208385E490E025E0FC0186
:1019600020838EE490E025E0FC0120838CE490E06D
:101970002CE731EEFC0131832083DF91CF91089574
:101980001F920F9200905F000F9211242F938F935C
:101990009F93EF93FF93CF93DF93CDB7DEB782E5AD
:1019A00090E029EDFC012083DF91CF91FF91EF9131
:1019B0009F918F912F910F9000925F000F901F9039
:1019C0001895A29FB001B39FC001A39F01D0B29F01
:1019D000700D811D1124911D0895AA1BBB1B51E19F
:1019E00007C0AA1FBB1FA617B70710F0A61BB70B8F
:1019F000881F991F5A95A9F780959095BC01CD0134
:101A00000895FC0101900020E9F7809590958E0FD4
:081A10009F1F0895F894FFCF19
:101A18004156544F00435441500043544F50002006
:0E1A2800504F440054505542005F474F50004D
:00000001FF
